{
  "contractName": "Voting",
  "abi": [
    {
      "inputs": [
        {
          "internalType": "address",
          "name": "_proxyRegistryAddress",
          "type": "address"
        }
      ],
      "payable": false,
      "stateMutability": "nonpayable",
      "type": "constructor"
    },
    {
      "anonymous": false,
      "inputs": [
        {
          "indexed": true,
          "internalType": "address",
          "name": "owner",
          "type": "address"
        },
        {
          "indexed": true,
          "internalType": "address",
          "name": "approved",
          "type": "address"
        },
        {
          "indexed": true,
          "internalType": "uint256",
          "name": "tokenId",
          "type": "uint256"
        }
      ],
      "name": "Approval",
      "type": "event"
    },
    {
      "anonymous": false,
      "inputs": [
        {
          "indexed": true,
          "internalType": "address",
          "name": "owner",
          "type": "address"
        },
        {
          "indexed": true,
          "internalType": "address",
          "name": "operator",
          "type": "address"
        },
        {
          "indexed": false,
          "internalType": "bool",
          "name": "approved",
          "type": "bool"
        }
      ],
      "name": "ApprovalForAll",
      "type": "event"
    },
    {
      "anonymous": false,
      "inputs": [
        {
          "indexed": true,
          "internalType": "address",
          "name": "previousOwner",
          "type": "address"
        },
        {
          "indexed": true,
          "internalType": "address",
          "name": "newOwner",
          "type": "address"
        }
      ],
      "name": "OwnershipTransferred",
      "type": "event"
    },
    {
      "anonymous": false,
      "inputs": [
        {
          "indexed": true,
          "internalType": "address",
          "name": "from",
          "type": "address"
        },
        {
          "indexed": true,
          "internalType": "address",
          "name": "to",
          "type": "address"
        },
        {
          "indexed": true,
          "internalType": "uint256",
          "name": "tokenId",
          "type": "uint256"
        }
      ],
      "name": "Transfer",
      "type": "event"
    },
    {
      "constant": false,
      "inputs": [
        {
          "internalType": "address",
          "name": "to",
          "type": "address"
        },
        {
          "internalType": "uint256",
          "name": "tokenId",
          "type": "uint256"
        }
      ],
      "name": "approve",
      "outputs": [],
      "payable": false,
      "stateMutability": "nonpayable",
      "type": "function"
    },
    {
      "constant": true,
      "inputs": [
        {
          "internalType": "address",
          "name": "owner",
          "type": "address"
        }
      ],
      "name": "balanceOf",
      "outputs": [
        {
          "internalType": "uint256",
          "name": "",
          "type": "uint256"
        }
      ],
      "payable": false,
      "stateMutability": "view",
      "type": "function"
    },
    {
      "constant": true,
      "inputs": [],
      "name": "baseTokenURI",
      "outputs": [
        {
          "internalType": "string",
          "name": "",
          "type": "string"
        }
      ],
      "payable": false,
      "stateMutability": "view",
      "type": "function"
    },
    {
      "constant": true,
      "inputs": [],
      "name": "baseURI",
      "outputs": [
        {
          "internalType": "string",
          "name": "",
          "type": "string"
        }
      ],
      "payable": false,
      "stateMutability": "view",
      "type": "function"
    },
    {
      "constant": true,
      "inputs": [
        {
          "internalType": "uint256",
          "name": "",
          "type": "uint256"
        }
      ],
      "name": "candidates",
      "outputs": [
        {
          "internalType": "string",
          "name": "name",
          "type": "string"
        },
        {
          "internalType": "uint256",
          "name": "voteCount",
          "type": "uint256"
        }
      ],
      "payable": false,
      "stateMutability": "view",
      "type": "function"
    },
    {
      "constant": true,
      "inputs": [],
      "name": "chairperson",
      "outputs": [
        {
          "internalType": "address",
          "name": "",
          "type": "address"
        }
      ],
      "payable": false,
      "stateMutability": "view",
      "type": "function"
    },
    {
      "constant": true,
      "inputs": [],
      "name": "electionName",
      "outputs": [
        {
          "internalType": "string",
          "name": "",
          "type": "string"
        }
      ],
      "payable": false,
      "stateMutability": "view",
      "type": "function"
    },
    {
      "constant": true,
      "inputs": [
        {
          "internalType": "uint256",
          "name": "tokenId",
          "type": "uint256"
        }
      ],
      "name": "getApproved",
      "outputs": [
        {
          "internalType": "address",
          "name": "",
          "type": "address"
        }
      ],
      "payable": false,
      "stateMutability": "view",
      "type": "function"
    },
    {
      "constant": true,
      "inputs": [
        {
          "internalType": "address",
          "name": "owner",
          "type": "address"
        },
        {
          "internalType": "address",
          "name": "operator",
          "type": "address"
        }
      ],
      "name": "isApprovedForAll",
      "outputs": [
        {
          "internalType": "bool",
          "name": "",
          "type": "bool"
        }
      ],
      "payable": false,
      "stateMutability": "view",
      "type": "function"
    },
    {
      "constant": true,
      "inputs": [],
      "name": "isOwner",
      "outputs": [
        {
          "internalType": "bool",
          "name": "",
          "type": "bool"
        }
      ],
      "payable": false,
      "stateMutability": "view",
      "type": "function"
    },
    {
      "constant": false,
      "inputs": [
        {
          "internalType": "address",
          "name": "_to",
          "type": "address"
        }
      ],
      "name": "mintTo",
      "outputs": [],
      "payable": false,
      "stateMutability": "nonpayable",
      "type": "function"
    },
    {
      "constant": true,
      "inputs": [],
      "name": "name",
      "outputs": [
        {
          "internalType": "string",
          "name": "",
          "type": "string"
        }
      ],
      "payable": false,
      "stateMutability": "view",
      "type": "function"
    },
    {
      "constant": true,
      "inputs": [],
      "name": "owner",
      "outputs": [
        {
          "internalType": "address",
          "name": "",
          "type": "address"
        }
      ],
      "payable": false,
      "stateMutability": "view",
      "type": "function"
    },
    {
      "constant": true,
      "inputs": [
        {
          "internalType": "uint256",
          "name": "tokenId",
          "type": "uint256"
        }
      ],
      "name": "ownerOf",
      "outputs": [
        {
          "internalType": "address",
          "name": "",
          "type": "address"
        }
      ],
      "payable": false,
      "stateMutability": "view",
      "type": "function"
    },
    {
      "constant": false,
      "inputs": [],
      "name": "renounceOwnership",
      "outputs": [],
      "payable": false,
      "stateMutability": "nonpayable",
      "type": "function"
    },
    {
      "constant": false,
      "inputs": [
        {
          "internalType": "address",
          "name": "from",
          "type": "address"
        },
        {
          "internalType": "address",
          "name": "to",
          "type": "address"
        },
        {
          "internalType": "uint256",
          "name": "tokenId",
          "type": "uint256"
        }
      ],
      "name": "safeTransferFrom",
      "outputs": [],
      "payable": false,
      "stateMutability": "nonpayable",
      "type": "function"
    },
    {
      "constant": false,
      "inputs": [
        {
          "internalType": "address",
          "name": "from",
          "type": "address"
        },
        {
          "internalType": "address",
          "name": "to",
          "type": "address"
        },
        {
          "internalType": "uint256",
          "name": "tokenId",
          "type": "uint256"
        },
        {
          "internalType": "bytes",
          "name": "_data",
          "type": "bytes"
        }
      ],
      "name": "safeTransferFrom",
      "outputs": [],
      "payable": false,
      "stateMutability": "nonpayable",
      "type": "function"
    },
    {
      "constant": false,
      "inputs": [
        {
          "internalType": "address",
          "name": "to",
          "type": "address"
        },
        {
          "internalType": "bool",
          "name": "approved",
          "type": "bool"
        }
      ],
      "name": "setApprovalForAll",
      "outputs": [],
      "payable": false,
      "stateMutability": "nonpayable",
      "type": "function"
    },
    {
      "constant": true,
      "inputs": [
        {
          "internalType": "bytes4",
          "name": "interfaceId",
          "type": "bytes4"
        }
      ],
      "name": "supportsInterface",
      "outputs": [
        {
          "internalType": "bool",
          "name": "",
          "type": "bool"
        }
      ],
      "payable": false,
      "stateMutability": "view",
      "type": "function"
    },
    {
      "constant": true,
      "inputs": [],
      "name": "symbol",
      "outputs": [
        {
          "internalType": "string",
          "name": "",
          "type": "string"
        }
      ],
      "payable": false,
      "stateMutability": "view",
      "type": "function"
    },
    {
      "constant": true,
      "inputs": [
        {
          "internalType": "uint256",
          "name": "index",
          "type": "uint256"
        }
      ],
      "name": "tokenByIndex",
      "outputs": [
        {
          "internalType": "uint256",
          "name": "",
          "type": "uint256"
        }
      ],
      "payable": false,
      "stateMutability": "view",
      "type": "function"
    },
    {
      "constant": true,
      "inputs": [
        {
          "internalType": "address",
          "name": "owner",
          "type": "address"
        },
        {
          "internalType": "uint256",
          "name": "index",
          "type": "uint256"
        }
      ],
      "name": "tokenOfOwnerByIndex",
      "outputs": [
        {
          "internalType": "uint256",
          "name": "",
          "type": "uint256"
        }
      ],
      "payable": false,
      "stateMutability": "view",
      "type": "function"
    },
    {
      "constant": true,
      "inputs": [
        {
          "internalType": "uint256",
          "name": "_tokenId",
          "type": "uint256"
        }
      ],
      "name": "tokenURI",
      "outputs": [
        {
          "internalType": "string",
          "name": "",
          "type": "string"
        }
      ],
      "payable": false,
      "stateMutability": "view",
      "type": "function"
    },
    {
      "constant": true,
      "inputs": [],
      "name": "totalSupply",
      "outputs": [
        {
          "internalType": "uint256",
          "name": "",
          "type": "uint256"
        }
      ],
      "payable": false,
      "stateMutability": "view",
      "type": "function"
    },
    {
      "constant": true,
      "inputs": [],
      "name": "totalVotes",
      "outputs": [
        {
          "internalType": "uint256",
          "name": "",
          "type": "uint256"
        }
      ],
      "payable": false,
      "stateMutability": "view",
      "type": "function"
    },
    {
      "constant": false,
      "inputs": [
        {
          "internalType": "address",
          "name": "from",
          "type": "address"
        },
        {
          "internalType": "address",
          "name": "to",
          "type": "address"
        },
        {
          "internalType": "uint256",
          "name": "tokenId",
          "type": "uint256"
        }
      ],
      "name": "transferFrom",
      "outputs": [],
      "payable": false,
      "stateMutability": "nonpayable",
      "type": "function"
    },
    {
      "constant": false,
      "inputs": [
        {
          "internalType": "address",
          "name": "newOwner",
          "type": "address"
        }
      ],
      "name": "transferOwnership",
      "outputs": [],
      "payable": false,
      "stateMutability": "nonpayable",
      "type": "function"
    },
    {
      "constant": true,
      "inputs": [
        {
          "internalType": "address",
          "name": "",
          "type": "address"
        }
      ],
      "name": "voters",
      "outputs": [
        {
          "internalType": "bool",
          "name": "authorized",
          "type": "bool"
        },
        {
          "internalType": "bool",
          "name": "voted",
          "type": "bool"
        },
        {
          "internalType": "uint256",
          "name": "vote",
          "type": "uint256"
        }
      ],
      "payable": false,
      "stateMutability": "view",
      "type": "function"
    },
    {
      "constant": false,
      "inputs": [
        {
          "internalType": "string",
          "name": "_name",
          "type": "string"
        }
      ],
      "name": "Election",
      "outputs": [],
      "payable": false,
      "stateMutability": "nonpayable",
      "type": "function"
    },
    {
      "constant": false,
      "inputs": [
        {
          "internalType": "string",
          "name": "_name",
          "type": "string"
        }
      ],
      "name": "addCandidate",
      "outputs": [],
      "payable": false,
      "stateMutability": "nonpayable",
      "type": "function"
    },
    {
      "constant": false,
      "inputs": [
        {
          "internalType": "address",
          "name": "_person",
          "type": "address"
        }
      ],
      "name": "authorize",
      "outputs": [],
      "payable": false,
      "stateMutability": "nonpayable",
      "type": "function"
    },
    {
      "constant": false,
      "inputs": [
        {
          "internalType": "uint256",
          "name": "_voteIndex",
          "type": "uint256"
        }
      ],
      "name": "vote",
      "outputs": [],
      "payable": false,
      "stateMutability": "nonpayable",
      "type": "function"
    },
    {
      "constant": false,
      "inputs": [
        {
          "components": [
            {
              "internalType": "string",
              "name": "name",
              "type": "string"
            },
            {
              "internalType": "uint256",
              "name": "voteCount",
              "type": "uint256"
            }
          ],
          "internalType": "struct Voting.Candidate",
          "name": "candidatesInit",
          "type": "tuple"
        },
        {
          "internalType": "string",
          "name": "electionNameInit",
          "type": "string"
        }
      ],
      "name": "mintVoting",
      "outputs": [],
      "payable": false,
      "stateMutability": "nonpayable",
      "type": "function"
    }
  ],
  "bytecode": "0x60806040526000600f553480156200001657600080fd5b50604051620045f9380380620045f983398181016040526200003c919081019062000426565b6040518060400160405280600981526020017f566f7465546f6b656e00000000000000000000000000000000000000000000008152506040518060400160405280600381526020017f56544b00000000000000000000000000000000000000000000000000000000008152508282828181620000c56301ffc9a760e01b6200028060201b60201c565b620000dd6380ac58cd60e01b6200028060201b60201c565b620000f563780e9d6360e01b6200028060201b60201c565b81600990805190602001906200010d92919062000360565b5080600a90805190602001906200012692919062000360565b506200013f635b5e139f60e01b6200028060201b60201c565b505050506000620001556200035860201b60201c565b905080600d60006101000a81548173ffffffffffffffffffffffffffffffffffffffff021916908373ffffffffffffffffffffffffffffffffffffffff1602179055508073ffffffffffffffffffffffffffffffffffffffff16600073ffffffffffffffffffffffffffffffffffffffff167f8be0079c531659141344cd1fd0a4f28419497f9722a3daafe3b4186f6b6457e060405160405180910390a35080600e60006101000a81548173ffffffffffffffffffffffffffffffffffffffff021916908373ffffffffffffffffffffffffffffffffffffffff16021790555050505033601060006101000a81548173ffffffffffffffffffffffffffffffffffffffff021916908373ffffffffffffffffffffffffffffffffffffffff1602179055505062000515565b63ffffffff60e01b817bffffffffffffffffffffffffffffffffffffffffffffffffffffffff19161415620002ec576040517f08c379a0000000000000000000000000000000000000000000000000000000008152600401620002e39062000494565b60405180910390fd5b6001600080837bffffffffffffffffffffffffffffffffffffffffffffffffffffffff19167bffffffffffffffffffffffffffffffffffffffffffffffffffffffff1916815260200190815260200160002060006101000a81548160ff02191690831515021790555050565b600033905090565b828054600181600116156101000203166002900490600052602060002090601f016020900481019282601f10620003a357805160ff1916838001178555620003d4565b82800160010185558215620003d4579182015b82811115620003d3578251825591602001919060010190620003b6565b5b509050620003e39190620003e7565b5090565b6200040c91905b8082111562000408576000816000905550600101620003ee565b5090565b90565b6000815190506200042081620004fb565b92915050565b6000602082840312156200043957600080fd5b600062000449848285016200040f565b91505092915050565b600062000461601c83620004b6565b91507f4552433136353a20696e76616c696420696e74657266616365206964000000006000830152602082019050919050565b60006020820190508181036000830152620004af8162000452565b9050919050565b600082825260208201905092915050565b6000620004d482620004db565b9050919050565b600073ffffffffffffffffffffffffffffffffffffffff82169050919050565b6200050681620004c7565b81146200051257600080fd5b50565b6140d480620005256000396000f3fe608060405234801561001057600080fd5b50600436106101fb5760003560e01c806370a082311161011a578063a3ec138d116100ad578063d3d699061161007c578063d3d69906146105c7578063d547cfb7146105e3578063e985e9c514610601578063f2fde38b14610631578063f34f5f451461064d576101fb565b8063a3ec138d1461052d578063b6a5d7de1461055f578063b88d4fde1461057b578063c87b56dd14610597576101fb565b80638da5cb5b116100e95780638da5cb5b146104b75780638f32d59b146104d557806395d89b41146104f3578063a22cb46514610511576101fb565b806370a0823114610443578063715018a614610473578063755edd171461047d57806385e8e7a714610499576101fb565b80632e4176cf11610192578063462e91ec11610161578063462e91ec146103a95780634f6ccce7146103c55780636352211e146103f55780636c0360eb14610425576101fb565b80632e4176cf1461030e5780632f745c591461032c5780633477ee2e1461035c57806342842e0e1461038d576101fb565b8063095ea7b3116101ce578063095ea7b31461029a5780630d15fd77146102b657806318160ddd146102d457806323b872dd146102f2576101fb565b80630121b93f1461020057806301ffc9a71461021c57806306fdde031461024c578063081812fc1461026a575b600080fd5b61021a600480360361021591908101906131c9565b610669565b005b610236600480360361023191908101906130ca565b61086b565b6040516102439190613adc565b60405180910390f35b6102546108d2565b6040516102619190613b50565b60405180910390f35b610284600480360361027f91908101906131c9565b610974565b6040516102919190613a75565b60405180910390f35b6102b460048036036102af919081019061308e565b6109f9565b005b6102be610bb4565b6040516102cb9190613e42565b60405180910390f35b6102dc610bba565b6040516102e99190613e42565b60405180910390f35b61030c60048036036103079190810190612f88565b610bc7565b005b610316610c27565b6040516103239190613a75565b60405180910390f35b6103466004803603610341919081019061308e565b610c4d565b6040516103539190613e42565b60405180910390f35b610376600480360361037191908101906131c9565b610cf6565b604051610384929190613b72565b60405180910390f35b6103a760048036036103a29190810190612f88565b610dbf565b005b6103c360048036036103be919081019061311c565b610ddf565b005b6103df60048036036103da91908101906131c9565b610edf565b6040516103ec9190613e42565b60405180910390f35b61040f600480360361040a91908101906131c9565b610f49565b60405161041c9190613a75565b60405180910390f35b61042d610ffb565b60405161043a9190613b50565b60405180910390f35b61045d60048036036104589190810190612f23565b61109d565b60405161046a9190613e42565b60405180910390f35b61047b61115c565b005b61049760048036036104929190810190612f23565b611264565b005b6104a16112cd565b6040516104ae9190613b2e565b60405180910390f35b6104bf61136b565b6040516104cc9190613a75565b60405180910390f35b6104dd611395565b6040516104ea9190613adc565b60405180910390f35b6104fb6113f4565b6040516105089190613b50565b60405180910390f35b61052b60048036036105269190810190613052565b611496565b005b61054760048036036105429190810190612f23565b611617565b60405161055693929190613af7565b60405180910390f35b61057960048036036105749190810190612f23565b61165b565b005b61059560048036036105909190810190612fd7565b611749565b005b6105b160048036036105ac91908101906131c9565b6117ab565b6040516105be9190613b50565b60405180910390f35b6105e160048036036105dc919081019061315d565b6117cd565b005b6105eb611849565b6040516105f89190613b50565b60405180910390f35b61061b60048036036106169190810190612f4c565b611860565b6040516106289190613adc565b60405180910390f35b61064b60048036036106469190810190612f23565b6118f4565b005b6106676004803603610662919081019061311c565b611947565b005b601260003373ffffffffffffffffffffffffffffffffffffffff1673ffffffffffffffffffffffffffffffffffffffff16815260200190815260200160002060000160019054906101000a900460ff16156106f9576040517f08c379a00000000000000000000000000000000000000000000000000000000081526004016106f090613cc2565b60405180910390fd5b601260003373ffffffffffffffffffffffffffffffffffffffff1673ffffffffffffffffffffffffffffffffffffffff16815260200190815260200160002060000160009054906101000a900460ff16610788576040517f08c379a000000000000000000000000000000000000000000000000000000000815260040161077f90613d42565b60405180910390fd5b80601260003373ffffffffffffffffffffffffffffffffffffffff1673ffffffffffffffffffffffffffffffffffffffff168152602001908152602001600020600101819055506001601260003373ffffffffffffffffffffffffffffffffffffffff1673ffffffffffffffffffffffffffffffffffffffff16815260200190815260200160002060000160016101000a81548160ff02191690831515021790555060016013828154811061083957fe5b906000526020600020906002020160010160008282540192505081905550600160146000828254019250508190555050565b6000806000837bffffffffffffffffffffffffffffffffffffffffffffffffffffffff19167bffffffffffffffffffffffffffffffffffffffffffffffffffffffff1916815260200190815260200160002060009054906101000a900460ff169050919050565b606060098054600181600116156101000203166002900480601f01602080910402602001604051908101604052809291908181526020018280546001816001161561010002031660029004801561096a5780601f1061093f5761010080835404028352916020019161096a565b820191906000526020600020905b81548152906001019060200180831161094d57829003601f168201915b5050505050905090565b600061097f826119a2565b6109be576040517f08c379a00000000000000000000000000000000000000000000000000000000081526004016109b590613d82565b60405180910390fd5b6002600083815260200190815260200160002060009054906101000a900473ffffffffffffffffffffffffffffffffffffffff169050919050565b6000610a0482610f49565b90508073ffffffffffffffffffffffffffffffffffffffff168373ffffffffffffffffffffffffffffffffffffffff161415610a75576040517f08c379a0000000000000000000000000000000000000000000000000000000008152600401610a6c90613de2565b60405180910390fd5b8073ffffffffffffffffffffffffffffffffffffffff16610a94611a14565b73ffffffffffffffffffffffffffffffffffffffff161480610ac35750610ac281610abd611a14565b611860565b5b610b02576040517f08c379a0000000000000000000000000000000000000000000000000000000008152600401610af990613ce2565b60405180910390fd5b826002600084815260200190815260200160002060006101000a81548173ffffffffffffffffffffffffffffffffffffffff021916908373ffffffffffffffffffffffffffffffffffffffff160217905550818373ffffffffffffffffffffffffffffffffffffffff168273ffffffffffffffffffffffffffffffffffffffff167f8c5be1e5ebec7d5bd14f71427d1e84f3dd0314c0f7b2291e5b200ac8c7c3b92560405160405180910390a4505050565b60145481565b6000600780549050905090565b610bd8610bd2611a14565b82611a1c565b610c17576040517f08c379a0000000000000000000000000000000000000000000000000000000008152600401610c0e90613e02565b60405180910390fd5b610c22838383611afa565b505050565b601060009054906101000a900473ffffffffffffffffffffffffffffffffffffffff1681565b6000610c588361109d565b8210610c99576040517f08c379a0000000000000000000000000000000000000000000000000000000008152600401610c9090613ba2565b60405180910390fd5b600560008473ffffffffffffffffffffffffffffffffffffffff1673ffffffffffffffffffffffffffffffffffffffff1681526020019081526020016000208281548110610ce357fe5b9060005260206000200154905092915050565b60138181548110610d0357fe5b9060005260206000209060020201600091509050806000018054600181600116156101000203166002900480601f016020809104026020016040519081016040528092919081815260200182805460018160011615610100020316600290048015610daf5780601f10610d8457610100808354040283529160200191610daf565b820191906000526020600020905b815481529060010190602001808311610d9257829003601f168201915b5050505050908060010154905082565b610dda83838360405180602001604052806000815250611749565b505050565b601060009054906101000a900473ffffffffffffffffffffffffffffffffffffffff1673ffffffffffffffffffffffffffffffffffffffff163373ffffffffffffffffffffffffffffffffffffffff1614610e6f576040517f08c379a0000000000000000000000000000000000000000000000000000000008152600401610e6690613c42565b60405180910390fd5b601360405180604001604052808381526020016000815250908060018154018082558091505090600182039060005260206000209060020201600090919290919091506000820151816000019080519060200190610ece929190612c09565b506020820151816001015550505050565b6000610ee9610bba565b8210610f2a576040517f08c379a0000000000000000000000000000000000000000000000000000000008152600401610f2190613e22565b60405180910390fd5b60078281548110610f3757fe5b90600052602060002001549050919050565b6000806001600084815260200190815260200160002060009054906101000a900473ffffffffffffffffffffffffffffffffffffffff169050600073ffffffffffffffffffffffffffffffffffffffff168173ffffffffffffffffffffffffffffffffffffffff161415610ff2576040517f08c379a0000000000000000000000000000000000000000000000000000000008152600401610fe990613d22565b60405180910390fd5b80915050919050565b6060600b8054600181600116156101000203166002900480601f0160208091040260200160405190810160405280929190818152602001828054600181600116156101000203166002900480156110935780601f1061106857610100808354040283529160200191611093565b820191906000526020600020905b81548152906001019060200180831161107657829003601f168201915b5050505050905090565b60008073ffffffffffffffffffffffffffffffffffffffff168273ffffffffffffffffffffffffffffffffffffffff16141561110e576040517f08c379a000000000000000000000000000000000000000000000000000000000815260040161110590613d02565b60405180910390fd5b611155600360008473ffffffffffffffffffffffffffffffffffffffff1673ffffffffffffffffffffffffffffffffffffffff168152602001908152602001600020611b1e565b9050919050565b611164611395565b6111a3576040517f08c379a000000000000000000000000000000000000000000000000000000000815260040161119a90613da2565b60405180910390fd5b600073ffffffffffffffffffffffffffffffffffffffff16600d60009054906101000a900473ffffffffffffffffffffffffffffffffffffffff1673ffffffffffffffffffffffffffffffffffffffff167f8be0079c531659141344cd1fd0a4f28419497f9722a3daafe3b4186f6b6457e060405160405180910390a36000600d60006101000a81548173ffffffffffffffffffffffffffffffffffffffff021916908373ffffffffffffffffffffffffffffffffffffffff160217905550565b61126c611395565b6112ab576040517f08c379a00000000000000000000000000000000000000000000000000000000081526004016112a290613da2565b60405180910390fd5b60006112b5611b2c565b90506112c18282611b49565b6112c9611b6a565b5050565b60118054600181600116156101000203166002900480601f0160208091040260200160405190810160405280929190818152602001828054600181600116156101000203166002900480156113635780601f1061133857610100808354040283529160200191611363565b820191906000526020600020905b81548152906001019060200180831161134657829003601f168201915b505050505081565b6000600d60009054906101000a900473ffffffffffffffffffffffffffffffffffffffff16905090565b6000600d60009054906101000a900473ffffffffffffffffffffffffffffffffffffffff1673ffffffffffffffffffffffffffffffffffffffff166113d8611a14565b73ffffffffffffffffffffffffffffffffffffffff1614905090565b6060600a8054600181600116156101000203166002900480601f01602080910402602001604051908101604052809291908181526020018280546001816001161561010002031660029004801561148c5780601f106114615761010080835404028352916020019161148c565b820191906000526020600020905b81548152906001019060200180831161146f57829003601f168201915b5050505050905090565b61149e611a14565b73ffffffffffffffffffffffffffffffffffffffff168273ffffffffffffffffffffffffffffffffffffffff16141561150c576040517f08c379a000000000000000000000000000000000000000000000000000000000815260040161150390613c82565b60405180910390fd5b8060046000611519611a14565b73ffffffffffffffffffffffffffffffffffffffff1673ffffffffffffffffffffffffffffffffffffffff16815260200190815260200160002060008473ffffffffffffffffffffffffffffffffffffffff1673ffffffffffffffffffffffffffffffffffffffff16815260200190815260200160002060006101000a81548160ff0219169083151502179055508173ffffffffffffffffffffffffffffffffffffffff166115c6611a14565b73ffffffffffffffffffffffffffffffffffffffff167f17307eab39ab6107e8899845ad3d59bd9653f200f220920489ca2b5937696c318360405161160b9190613adc565b60405180910390a35050565b60126020528060005260406000206000915090508060000160009054906101000a900460ff16908060000160019054906101000a900460ff16908060010154905083565b601060009054906101000a900473ffffffffffffffffffffffffffffffffffffffff1673ffffffffffffffffffffffffffffffffffffffff163373ffffffffffffffffffffffffffffffffffffffff16146116eb576040517f08c379a00000000000000000000000000000000000000000000000000000000081526004016116e290613c42565b60405180910390fd5b6001601260008373ffffffffffffffffffffffffffffffffffffffff1673ffffffffffffffffffffffffffffffffffffffff16815260200190815260200160002060000160006101000a81548160ff02191690831515021790555050565b61175a611754611a14565b83611a1c565b611799576040517f08c379a000000000000000000000000000000000000000000000000000000000815260040161179090613e02565b60405180910390fd5b6117a584848484611b7e565b50505050565b60606117c66117b8611849565b6117c184611bda565b611d07565b9050919050565b601382908060018154018082558091505090600182039060005260206000209060020201600090919290919091506000820151816000019080519060200190611817929190612c09565b5060208201518160010155505050806011908051906020019061183b929190612c89565b5061184533611264565b5050565b606060405180602001604052806000815250905090565b6000600460008473ffffffffffffffffffffffffffffffffffffffff1673ffffffffffffffffffffffffffffffffffffffff16815260200190815260200160002060008373ffffffffffffffffffffffffffffffffffffffff1673ffffffffffffffffffffffffffffffffffffffff16815260200190815260200160002060009054906101000a900460ff16905092915050565b6118fc611395565b61193b576040517f08c379a000000000000000000000000000000000000000000000000000000000815260040161193290613da2565b60405180910390fd5b61194481611d4b565b50565b33601060006101000a81548173ffffffffffffffffffffffffffffffffffffffff021916908373ffffffffffffffffffffffffffffffffffffffff160217905550806011908051906020019061199e929190612c89565b5050565b6000806001600084815260200190815260200160002060009054906101000a900473ffffffffffffffffffffffffffffffffffffffff169050600073ffffffffffffffffffffffffffffffffffffffff168173ffffffffffffffffffffffffffffffffffffffff161415915050919050565b600033905090565b6000611a27826119a2565b611a66576040517f08c379a0000000000000000000000000000000000000000000000000000000008152600401611a5d90613ca2565b60405180910390fd5b6000611a7183610f49565b90508073ffffffffffffffffffffffffffffffffffffffff168473ffffffffffffffffffffffffffffffffffffffff161480611ae057508373ffffffffffffffffffffffffffffffffffffffff16611ac884610974565b73ffffffffffffffffffffffffffffffffffffffff16145b80611af15750611af08185611860565b5b91505092915050565b611b05838383611e7b565b611b0f83826120aa565b611b198282612248565b505050565b600081600001549050919050565b6000611b446001600f5461230f90919063ffffffff16565b905090565b611b538282612364565b611b5d8282612248565b611b6681612516565b5050565b600f60008154809291906001019190505550565b611b89848484611afa565b611b9584848484612562565b611bd4576040517f08c379a0000000000000000000000000000000000000000000000000000000008152600401611bcb90613bc2565b60405180910390fd5b50505050565b60606000821415611c22576040518060400160405280600181526020017f30000000000000000000000000000000000000000000000000000000000000008152509050611d02565b600082905060005b60008214611c4c578080600101915050600a8281611c4457fe5b049150611c2a565b6060816040519080825280601f01601f191660200182016040528015611c815781602001600182028038833980820191505090505b50905060006001830390505b60008614611cfa57600a8681611c9f57fe5b0660300160f81b82828060019003935081518110611cb957fe5b60200101907effffffffffffffffffffffffffffffffffffffffffffffffffffffffffffff1916908160001a905350600a8681611cf257fe5b049550611c8d565b819450505050505b919050565b6060611d43838360405180602001604052806000815250604051806020016040528060008152506040518060200160405280600081525061275c565b905092915050565b600073ffffffffffffffffffffffffffffffffffffffff168173ffffffffffffffffffffffffffffffffffffffff161415611dbb576040517f08c379a0000000000000000000000000000000000000000000000000000000008152600401611db290613be2565b60405180910390fd5b8073ffffffffffffffffffffffffffffffffffffffff16600d60009054906101000a900473ffffffffffffffffffffffffffffffffffffffff1673ffffffffffffffffffffffffffffffffffffffff167f8be0079c531659141344cd1fd0a4f28419497f9722a3daafe3b4186f6b6457e060405160405180910390a380600d60006101000a81548173ffffffffffffffffffffffffffffffffffffffff021916908373ffffffffffffffffffffffffffffffffffffffff16021790555050565b8273ffffffffffffffffffffffffffffffffffffffff16611e9b82610f49565b73ffffffffffffffffffffffffffffffffffffffff1614611ef1576040517f08c379a0000000000000000000000000000000000000000000000000000000008152600401611ee890613dc2565b60405180910390fd5b600073ffffffffffffffffffffffffffffffffffffffff168273ffffffffffffffffffffffffffffffffffffffff161415611f61576040517f08c379a0000000000000000000000000000000000000000000000000000000008152600401611f5890613c62565b60405180910390fd5b611f6a81612a22565b611fb1600360008573ffffffffffffffffffffffffffffffffffffffff1673ffffffffffffffffffffffffffffffffffffffff168152602001908152602001600020612ae0565b611ff8600360008473ffffffffffffffffffffffffffffffffffffffff1673ffffffffffffffffffffffffffffffffffffffff168152602001908152602001600020612b03565b816001600083815260200190815260200160002060006101000a81548173ffffffffffffffffffffffffffffffffffffffff021916908373ffffffffffffffffffffffffffffffffffffffff160217905550808273ffffffffffffffffffffffffffffffffffffffff168473ffffffffffffffffffffffffffffffffffffffff167fddf252ad1be2c89b69c2b068fc378daa952ba7f163c4a11628f55a4df523b3ef60405160405180910390a4505050565b60006121026001600560008673ffffffffffffffffffffffffffffffffffffffff1673ffffffffffffffffffffffffffffffffffffffff16815260200190815260200160002080549050612b1990919063ffffffff16565b90506000600660008481526020019081526020016000205490508181146121ef576000600560008673ffffffffffffffffffffffffffffffffffffffff1673ffffffffffffffffffffffffffffffffffffffff168152602001908152602001600020838154811061216f57fe5b9060005260206000200154905080600560008773ffffffffffffffffffffffffffffffffffffffff1673ffffffffffffffffffffffffffffffffffffffff16815260200190815260200160002083815481106121c757fe5b9060005260206000200181905550816006600083815260200190815260200160002081905550505b600560008573ffffffffffffffffffffffffffffffffffffffff1673ffffffffffffffffffffffffffffffffffffffff1681526020019081526020016000208054809190600190036122419190612d09565b5050505050565b600560008373ffffffffffffffffffffffffffffffffffffffff1673ffffffffffffffffffffffffffffffffffffffff168152602001908152602001600020805490506006600083815260200190815260200160002081905550600560008373ffffffffffffffffffffffffffffffffffffffff1673ffffffffffffffffffffffffffffffffffffffff1681526020019081526020016000208190806001815401808255809150509060018203906000526020600020016000909192909190915055505050565b60008082840190508381101561235a576040517f08c379a000000000000000000000000000000000000000000000000000000000815260040161235190613c22565b60405180910390fd5b8091505092915050565b600073ffffffffffffffffffffffffffffffffffffffff168273ffffffffffffffffffffffffffffffffffffffff1614156123d4576040517f08c379a00000000000000000000000000000000000000000000000000000000081526004016123cb90613d62565b60405180910390fd5b6123dd816119a2565b1561241d576040517f08c379a000000000000000000000000000000000000000000000000000000000815260040161241490613c02565b60405180910390fd5b816001600083815260200190815260200160002060006101000a81548173ffffffffffffffffffffffffffffffffffffffff021916908373ffffffffffffffffffffffffffffffffffffffff1602179055506124b6600360008473ffffffffffffffffffffffffffffffffffffffff1673ffffffffffffffffffffffffffffffffffffffff168152602001908152602001600020612b03565b808273ffffffffffffffffffffffffffffffffffffffff16600073ffffffffffffffffffffffffffffffffffffffff167fddf252ad1be2c89b69c2b068fc378daa952ba7f163c4a11628f55a4df523b3ef60405160405180910390a45050565b6007805490506008600083815260200190815260200160002081905550600781908060018154018082558091505090600182039060005260206000200160009091929091909150555050565b60006125838473ffffffffffffffffffffffffffffffffffffffff16612b63565b6125905760019050612754565b600060608573ffffffffffffffffffffffffffffffffffffffff168673ffffffffffffffffffffffffffffffffffffffff1663150b7a02905060e01b6125d4611a14565b8988886040516024016125ea9493929190613a90565b604051602081830303815290604052907bffffffffffffffffffffffffffffffffffffffffffffffffffffffff19166020820180517bffffffffffffffffffffffffffffffffffffffffffffffffffffffff83818316178352505050506040516126549190613a5e565b6000604051808303816000865af19150503d8060008114612691576040519150601f19603f3d011682016040523d82523d6000602084013e612696565b606091505b5091509150816126ee576000815111156126b35780518082602001fd5b6040517f08c379a00000000000000000000000000000000000000000000000000000000081526004016126e590613bc2565b60405180910390fd5b60008180602001905161270491908101906130f3565b905063150b7a0260e01b7bffffffffffffffffffffffffffffffffffffffffffffffffffffffff1916817bffffffffffffffffffffffffffffffffffffffffffffffffffffffff19161493505050505b949350505050565b6060808690506060869050606086905060608690506060869050606081518351855187518951010101016040519080825280601f01601f1916602001820160405280156127b85781602001600182028038833980820191505090505b5090506060819050600080905060008090505b8851811015612839578881815181106127e057fe5b602001015160f81c60f81b8383806001019450815181106127fd57fe5b60200101907effffffffffffffffffffffffffffffffffffffffffffffffffffffffffffff1916908160001a90535080806001019150506127cb565b5060008090505b87518110156128ae5787818151811061285557fe5b602001015160f81c60f81b83838060010194508151811061287257fe5b60200101907effffffffffffffffffffffffffffffffffffffffffffffffffffffffffffff1916908160001a9053508080600101915050612840565b5060008090505b8651811015612923578681815181106128ca57fe5b602001015160f81c60f81b8383806001019450815181106128e757fe5b60200101907effffffffffffffffffffffffffffffffffffffffffffffffffffffffffffff1916908160001a90535080806001019150506128b5565b5060008090505b85518110156129985785818151811061293f57fe5b602001015160f81c60f81b83838060010194508151811061295c57fe5b60200101907effffffffffffffffffffffffffffffffffffffffffffffffffffffffffffff1916908160001a905350808060010191505061292a565b5060008090505b8451811015612a0d578481815181106129b457fe5b602001015160f81c60f81b8383806001019450815181106129d157fe5b60200101907effffffffffffffffffffffffffffffffffffffffffffffffffffffffffffff1916908160001a905350808060010191505061299f565b50819850505050505050505095945050505050565b600073ffffffffffffffffffffffffffffffffffffffff166002600083815260200190815260200160002060009054906101000a900473ffffffffffffffffffffffffffffffffffffffff1673ffffffffffffffffffffffffffffffffffffffff1614612add5760006002600083815260200190815260200160002060006101000a81548173ffffffffffffffffffffffffffffffffffffffff021916908373ffffffffffffffffffffffffffffffffffffffff1602179055505b50565b612af860018260000154612b1990919063ffffffff16565b816000018190555050565b6001816000016000828254019250508190555050565b6000612b5b83836040518060400160405280601e81526020017f536166654d6174683a207375627472616374696f6e206f766572666c6f770000815250612bae565b905092915050565b60008060007fc5d2460186f7233c927e7db2dcc703c0e500b653ca82273b7bfad8045d85a47060001b9050833f9150808214158015612ba557506000801b8214155b92505050919050565b6000838311158290612bf6576040517f08c379a0000000000000000000000000000000000000000000000000000000008152600401612bed9190613b50565b60405180910390fd5b5060008385039050809150509392505050565b828054600181600116156101000203166002900490600052602060002090601f016020900481019282601f10612c4a57805160ff1916838001178555612c78565b82800160010185558215612c78579182015b82811115612c77578251825591602001919060010190612c5c565b5b509050612c859190612d35565b5090565b828054600181600116156101000203166002900490600052602060002090601f016020900481019282601f10612cca57805160ff1916838001178555612cf8565b82800160010185558215612cf8579182015b82811115612cf7578251825591602001919060010190612cdc565b5b509050612d059190612d35565b5090565b815481835581811115612d3057818360005260206000209182019101612d2f9190612d35565b5b505050565b612d5791905b80821115612d53576000816000905550600101612d3b565b5090565b90565b600081359050612d6981614035565b92915050565b600081359050612d7e8161404c565b92915050565b600081359050612d9381614063565b92915050565b600081519050612da881614063565b92915050565b600082601f830112612dbf57600080fd5b8135612dd2612dcd82613e8a565b613e5d565b91508082526020830160208301858383011115612dee57600080fd5b612df9838284613fe2565b50505092915050565b600082601f830112612e1357600080fd5b8135612e26612e2182613eb6565b613e5d565b91508082526020830160208301858383011115612e4257600080fd5b612e4d838284613fe2565b50505092915050565b600082601f830112612e6757600080fd5b8135612e7a612e7582613ee2565b613e5d565b91508082526020830160208301858383011115612e9657600080fd5b612ea1838284613fe2565b50505092915050565b600060408284031215612ebc57600080fd5b612ec66040613e5d565b9050600082013567ffffffffffffffff811115612ee257600080fd5b612eee84828501612e02565b6000830152506020612f0284828501612f0e565b60208301525092915050565b600081359050612f1d8161407a565b92915050565b600060208284031215612f3557600080fd5b6000612f4384828501612d5a565b91505092915050565b60008060408385031215612f5f57600080fd5b6000612f6d85828601612d5a565b9250506020612f7e85828601612d5a565b9150509250929050565b600080600060608486031215612f9d57600080fd5b6000612fab86828701612d5a565b9350506020612fbc86828701612d5a565b9250506040612fcd86828701612f0e565b9150509250925092565b60008060008060808587031215612fed57600080fd5b6000612ffb87828801612d5a565b945050602061300c87828801612d5a565b935050604061301d87828801612f0e565b925050606085013567ffffffffffffffff81111561303a57600080fd5b61304687828801612dae565b91505092959194509250565b6000806040838503121561306557600080fd5b600061307385828601612d5a565b925050602061308485828601612d6f565b9150509250929050565b600080604083850312156130a157600080fd5b60006130af85828601612d5a565b92505060206130c085828601612f0e565b9150509250929050565b6000602082840312156130dc57600080fd5b60006130ea84828501612d84565b91505092915050565b60006020828403121561310557600080fd5b600061311384828501612d99565b91505092915050565b60006020828403121561312e57600080fd5b600082013567ffffffffffffffff81111561314857600080fd5b61315484828501612e56565b91505092915050565b6000806040838503121561317057600080fd5b600083013567ffffffffffffffff81111561318a57600080fd5b61319685828601612eaa565b925050602083013567ffffffffffffffff8111156131b357600080fd5b6131bf85828601612e56565b9150509250929050565b6000602082840312156131db57600080fd5b60006131e984828501612f0e565b91505092915050565b6131fb81613f6e565b82525050565b61320a81613f5c565b82525050565b61321981613f80565b82525050565b600061322a82613f0e565b6132348185613f2f565b9350613244818560208601613ff1565b61324d81614024565b840191505092915050565b600061326382613f0e565b61326d8185613f40565b935061327d818560208601613ff1565b80840191505092915050565b600061329482613f24565b61329e8185613f4b565b93506132ae818560208601613ff1565b6132b781614024565b840191505092915050565b60006132cd82613f19565b6132d78185613f4b565b93506132e7818560208601613ff1565b6132f081614024565b840191505092915050565b6000613308602b83613f4b565b91507f455243373231456e756d657261626c653a206f776e657220696e646578206f7560008301527f74206f6620626f756e64730000000000000000000000000000000000000000006020830152604082019050919050565b600061336e603283613f4b565b91507f4552433732313a207472616e7366657220746f206e6f6e20455243373231526560008301527f63656976657220696d706c656d656e74657200000000000000000000000000006020830152604082019050919050565b60006133d4602683613f4b565b91507f4f776e61626c653a206e6577206f776e657220697320746865207a65726f206160008301527f64647265737300000000000000000000000000000000000000000000000000006020830152604082019050919050565b600061343a601c83613f4b565b91507f4552433732313a20746f6b656e20616c7265616479206d696e746564000000006000830152602082019050919050565b600061347a601b83613f4b565b91507f536166654d6174683a206164646974696f6e206f766572666c6f7700000000006000830152602082019050919050565b60006134ba602a83613f4b565b91507f556e6175746f726973656420616363657373202c206f6e6c79204f776e65722060008301527f63616e20616363657373000000000000000000000000000000000000000000006020830152604082019050919050565b6000613520602483613f4b565b91507f4552433732313a207472616e7366657220746f20746865207a65726f2061646460008301527f72657373000000000000000000000000000000000000000000000000000000006020830152604082019050919050565b6000613586601983613f4b565b91507f4552433732313a20617070726f766520746f2063616c6c6572000000000000006000830152602082019050919050565b60006135c6602c83613f4b565b91507f4552433732313a206f70657261746f7220717565727920666f72206e6f6e657860008301527f697374656e7420746f6b656e00000000000000000000000000000000000000006020830152604082019050919050565b600061362c601d83613f4b565b91507f416c726561647920766f746564206f6e207468697320616464726573730000006000830152602082019050919050565b600061366c603883613f4b565b91507f4552433732313a20617070726f76652063616c6c6572206973206e6f74206f7760008301527f6e6572206e6f7220617070726f76656420666f7220616c6c00000000000000006020830152604082019050919050565b60006136d2602a83613f4b565b91507f4552433732313a2062616c616e636520717565727920666f7220746865207a6560008301527f726f2061646472657373000000000000000000000000000000000000000000006020830152604082019050919050565b6000613738602983613f4b565b91507f4552433732313a206f776e657220717565727920666f72206e6f6e657869737460008301527f656e7420746f6b656e00000000000000000000000000000000000000000000006020830152604082019050919050565b600061379e601683613f4b565b91507f5761697420666f7220617574686f72697a6174696f6e000000000000000000006000830152602082019050919050565b60006137de602083613f4b565b91507f4552433732313a206d696e7420746f20746865207a65726f20616464726573736000830152602082019050919050565b600061381e602c83613f4b565b91507f4552433732313a20617070726f76656420717565727920666f72206e6f6e657860008301527f697374656e7420746f6b656e00000000000000000000000000000000000000006020830152604082019050919050565b6000613884602083613f4b565b91507f4f776e61626c653a2063616c6c6572206973206e6f7420746865206f776e65726000830152602082019050919050565b60006138c4602983613f4b565b91507f4552433732313a207472616e73666572206f6620746f6b656e2074686174206960008301527f73206e6f74206f776e00000000000000000000000000000000000000000000006020830152604082019050919050565b600061392a602183613f4b565b91507f4552433732313a20617070726f76616c20746f2063757272656e74206f776e6560008301527f72000000000000000000000000000000000000000000000000000000000000006020830152604082019050919050565b6000613990603183613f4b565b91507f4552433732313a207472616e736665722063616c6c6572206973206e6f74206f60008301527f776e6572206e6f7220617070726f7665640000000000000000000000000000006020830152604082019050919050565b60006139f6602c83613f4b565b91507f455243373231456e756d657261626c653a20676c6f62616c20696e646578206f60008301527f7574206f6620626f756e647300000000000000000000000000000000000000006020830152604082019050919050565b613a5881613fd8565b82525050565b6000613a6a8284613258565b915081905092915050565b6000602082019050613a8a6000830184613201565b92915050565b6000608082019050613aa560008301876131f2565b613ab26020830186613201565b613abf6040830185613a4f565b8181036060830152613ad1818461321f565b905095945050505050565b6000602082019050613af16000830184613210565b92915050565b6000606082019050613b0c6000830186613210565b613b196020830185613210565b613b266040830184613a4f565b949350505050565b60006020820190508181036000830152613b4881846132c2565b905092915050565b60006020820190508181036000830152613b6a8184613289565b905092915050565b60006040820190508181036000830152613b8c81856132c2565b9050613b9b6020830184613a4f565b9392505050565b60006020820190508181036000830152613bbb816132fb565b9050919050565b60006020820190508181036000830152613bdb81613361565b9050919050565b60006020820190508181036000830152613bfb816133c7565b9050919050565b60006020820190508181036000830152613c1b8161342d565b9050919050565b60006020820190508181036000830152613c3b8161346d565b9050919050565b60006020820190508181036000830152613c5b816134ad565b9050919050565b60006020820190508181036000830152613c7b81613513565b9050919050565b60006020820190508181036000830152613c9b81613579565b9050919050565b60006020820190508181036000830152613cbb816135b9565b9050919050565b60006020820190508181036000830152613cdb8161361f565b9050919050565b60006020820190508181036000830152613cfb8161365f565b9050919050565b60006020820190508181036000830152613d1b816136c5565b9050919050565b60006020820190508181036000830152613d3b8161372b565b9050919050565b60006020820190508181036000830152613d5b81613791565b9050919050565b60006020820190508181036000830152613d7b816137d1565b9050919050565b60006020820190508181036000830152613d9b81613811565b9050919050565b60006020820190508181036000830152613dbb81613877565b9050919050565b60006020820190508181036000830152613ddb816138b7565b9050919050565b60006020820190508181036000830152613dfb8161391d565b9050919050565b60006020820190508181036000830152613e1b81613983565b9050919050565b60006020820190508181036000830152613e3b816139e9565b9050919050565b6000602082019050613e576000830184613a4f565b92915050565b6000604051905081810181811067ffffffffffffffff82111715613e8057600080fd5b8060405250919050565b600067ffffffffffffffff821115613ea157600080fd5b601f19601f8301169050602081019050919050565b600067ffffffffffffffff821115613ecd57600080fd5b601f19601f8301169050602081019050919050565b600067ffffffffffffffff821115613ef957600080fd5b601f19601f8301169050602081019050919050565b600081519050919050565b600081519050919050565b600081519050919050565b600082825260208201905092915050565b600081905092915050565b600082825260208201905092915050565b6000613f6782613fb8565b9050919050565b6000613f7982613fb8565b9050919050565b60008115159050919050565b60007fffffffff0000000000000000000000000000000000000000000000000000000082169050919050565b600073ffffffffffffffffffffffffffffffffffffffff82169050919050565b6000819050919050565b82818337600083830152505050565b60005b8381101561400f578082015181840152602081019050613ff4565b8381111561401e576000848401525b50505050565b6000601f19601f8301169050919050565b61403e81613f5c565b811461404957600080fd5b50565b61405581613f80565b811461406057600080fd5b50565b61406c81613f8c565b811461407757600080fd5b50565b61408381613fd8565b811461408e57600080fd5b5056fea365627a7a72315820a1ec7c6e8097bc7b0e4a76a243c9cb89424f7fcf87e37ae04167fb2f3418391f6c6578706572696d656e74616cf564736f6c63430005100040",
  "source": "pragma solidity ^0.5.0;\r\npragma experimental ABIEncoderV2;\r\n\r\nimport \"./ERC721Token.sol\";\r\nimport \"@openzeppelin/contracts/ownership/Ownable.sol\";\r\n\r\ncontract Voting is ERC721Token{\r\n\r\n    struct Candidate{\r\n        string name;\r\n        uint voteCount;\r\n    }\r\n\r\n    struct Voter{\r\n        bool authorized;\r\n        bool voted;\r\n        uint vote;\r\n    }\r\n\r\n    address public chairperson;\r\n    string public electionName;\r\n\r\n    mapping(address => Voter) public voters;\r\n    Candidate[] public candidates;\r\n    uint public totalVotes;\r\n\r\nconstructor(address _proxyRegistryAddress) ERC721Token(\"VoteToken\", \"VTK\", _proxyRegistryAddress) public { \r\n    chairperson = msg.sender;\r\n }\r\n\r\n    modifier _onlyChairperson(){\r\n        require(msg.sender == chairperson,\"Unautorised access , only Owner can access\");\r\n        _;\r\n    }\r\n\r\n    function Election(string memory _name) public{\r\n        chairperson = msg.sender;\r\n        electionName = _name;\r\n    }\r\n\r\n    function addCandidate(string memory _name) _onlyChairperson public{\r\n        candidates.push(Candidate(_name , 0));\r\n    }\r\n\r\n    function authorize(address _person) _onlyChairperson public{\r\n        voters[_person].authorized = true;\r\n    }\r\n\r\n    function vote(uint _voteIndex) public{\r\n        require(!voters[msg.sender].voted , \"Already voted on this address\");\r\n        require(voters[msg.sender].authorized , \"Wait for authorization\");\r\n\r\n        voters[msg.sender].vote = _voteIndex;\r\n        voters[msg.sender].voted = true;\r\n\r\n        candidates[_voteIndex].voteCount += 1;\r\n        totalVotes += 1;\r\n    }\r\n\r\n    function mintVoting(Candidate memory candidatesInit, string memory electionNameInit) public{\r\n        candidates.push(candidatesInit);\r\n        electionName = electionNameInit;\r\n         mintTo(msg.sender);\r\n    }\r\n}",
  "sourcePath": "C:\\Users\\Patterson Thamba\\Documents\\Assignment_VotingSystem\\contracts\\Voting.sol",
  "compiler": {
    "name": "solc",
    "version": "0.5.16+commit.9c3226ce.Emscripten.clang"
  },
  "schemaVersion": "3.2.0",
  "updatedAt": "2020-06-08T21:49:55.237Z",
  "devdoc": {
    "methods": {
      "approve(address,uint256)": {
        "details": "Approves another address to transfer the given token ID The zero address indicates there is no approved address. There can only be one approved address per token at a given time. Can only be called by the token owner or an approved operator.",
        "params": {
          "to": "address to be approved for the given token ID",
          "tokenId": "uint256 ID of the token to be approved"
        }
      },
      "balanceOf(address)": {
        "details": "Gets the balance of the specified address.",
        "params": {
          "owner": "address to query the balance of"
        },
        "return": "uint256 representing the amount owned by the passed address"
      },
      "baseURI()": {
        "details": "Returns the base URI set via {_setBaseURI}. This will be automatically added as a preffix in {tokenURI} to each token's URI, when they are non-empty.    * _Available since v2.5.0._"
      },
      "getApproved(uint256)": {
        "details": "Gets the approved address for a token ID, or zero if no address set Reverts if the token ID does not exist.",
        "params": {
          "tokenId": "uint256 ID of the token to query the approval of"
        },
        "return": "address currently approved for the given token ID"
      },
      "isApprovedForAll(address,address)": {
        "details": "Tells whether an operator is approved by a given owner.",
        "params": {
          "operator": "operator address which you want to query the approval of",
          "owner": "owner address which you want to query the approval of"
        },
        "return": "bool whether the given operator is approved by the given owner"
      },
      "isOwner()": {
        "details": "Returns true if the caller is the current owner."
      },
      "mintTo(address)": {
        "details": "Mints a token to an address with a tokenURI.",
        "params": {
          "_to": "address of the future owner of the token"
        }
      },
      "name()": {
        "details": "Gets the token name.",
        "return": "string representing the token name"
      },
      "owner()": {
        "details": "Returns the address of the current owner."
      },
      "ownerOf(uint256)": {
        "details": "Gets the owner of the specified token ID.",
        "params": {
          "tokenId": "uint256 ID of the token to query the owner of"
        },
        "return": "address currently marked as the owner of the given token ID"
      },
      "renounceOwnership()": {
        "details": "Leaves the contract without owner. It will not be possible to call `onlyOwner` functions anymore. Can only be called by the current owner.     * NOTE: Renouncing ownership will leave the contract without an owner, thereby removing any functionality that is only available to the owner."
      },
      "safeTransferFrom(address,address,uint256)": {
        "details": "Safely transfers the ownership of a given token ID to another address If the target address is a contract, it must implement {IERC721Receiver-onERC721Received}, which is called upon a safe transfer, and return the magic value `bytes4(keccak256(\"onERC721Received(address,address,uint256,bytes)\"))`; otherwise, the transfer is reverted. Requires the msg.sender to be the owner, approved, or operator",
        "params": {
          "from": "current owner of the token",
          "to": "address to receive the ownership of the given token ID",
          "tokenId": "uint256 ID of the token to be transferred"
        }
      },
      "safeTransferFrom(address,address,uint256,bytes)": {
        "details": "Safely transfers the ownership of a given token ID to another address If the target address is a contract, it must implement {IERC721Receiver-onERC721Received}, which is called upon a safe transfer, and return the magic value `bytes4(keccak256(\"onERC721Received(address,address,uint256,bytes)\"))`; otherwise, the transfer is reverted. Requires the _msgSender() to be the owner, approved, or operator",
        "params": {
          "_data": "bytes data to send along with a safe transfer check",
          "from": "current owner of the token",
          "to": "address to receive the ownership of the given token ID",
          "tokenId": "uint256 ID of the token to be transferred"
        }
      },
      "setApprovalForAll(address,bool)": {
        "details": "Sets or unsets the approval of a given operator An operator is allowed to transfer all tokens of the sender on their behalf.",
        "params": {
          "approved": "representing the status of the approval to be set",
          "to": "operator address to set the approval"
        }
      },
      "supportsInterface(bytes4)": {
        "details": "See {IERC165-supportsInterface}.     * Time complexity O(1), guaranteed to always use less than 30 000 gas."
      },
      "symbol()": {
        "details": "Gets the token symbol.",
        "return": "string representing the token symbol"
      },
      "tokenByIndex(uint256)": {
        "details": "Gets the token ID at a given index of all the tokens in this contract Reverts if the index is greater or equal to the total number of tokens.",
        "params": {
          "index": "uint256 representing the index to be accessed of the tokens list"
        },
        "return": "uint256 token ID at the given index of the tokens list"
      },
      "tokenOfOwnerByIndex(address,uint256)": {
        "details": "Gets the token ID at a given index of the tokens list of the requested owner.",
        "params": {
          "index": "uint256 representing the index to be accessed of the requested tokens list",
          "owner": "address owning the tokens list to be accessed"
        },
        "return": "uint256 token ID at the given index of the tokens list owned by the requested address"
      },
      "totalSupply()": {
        "details": "Gets the total amount of tokens stored by the contract.",
        "return": "uint256 representing the total amount of tokens"
      },
      "transferFrom(address,address,uint256)": {
        "details": "Transfers the ownership of a given token ID to another address. Usage of this method is discouraged, use {safeTransferFrom} whenever possible. Requires the msg.sender to be the owner, approved, or operator.",
        "params": {
          "from": "current owner of the token",
          "to": "address to receive the ownership of the given token ID",
          "tokenId": "uint256 ID of the token to be transferred"
        }
      },
      "transferOwnership(address)": {
        "details": "Transfers ownership of the contract to a new account (`newOwner`). Can only be called by the current owner."
      }
    }
  },
  "userdoc": {
    "methods": {}
  }
}